{"abi":[{"type":"function","name":"deposit","inputs":[{"name":"amount","type":"uint256","internalType":"uint256"}],"outputs":[],"stateMutability":"nonpayable"},{"type":"function","name":"getTotalDeposits","inputs":[],"outputs":[{"name":"","type":"uint256","internalType":"uint256"}],"stateMutability":"view"},{"type":"function","name":"number","inputs":[],"outputs":[{"name":"","type":"uint256","internalType":"uint256"}],"stateMutability":"view"},{"type":"function","name":"totalDeposits","inputs":[],"outputs":[{"name":"","type":"uint256","internalType":"uint256"}],"stateMutability":"view"},{"type":"error","name":"DipSaver_InsufficientDeposit","inputs":[]}],"bytecode":{"object":"0x60806040526000805534801561001457600080fd5b5061012d806100246000396000f3fe6080604052348015600f57600080fd5b506004361060465760003560e01c8063168a482214604b5780637d8820971460615780638381f58a146069578063b6b55f25146071575b600080fd5b6000545b60405190815260200160405180910390f35b604f60005481565b604f60015481565b6080607c36600460b9565b6082565b005b8060000360a257604051630f6c005d60e21b815260040160405180910390fd5b8060008082825460b1919060d1565b909155505050565b60006020828403121560ca57600080fd5b5035919050565b8082018082111560f157634e487b7160e01b600052601160045260246000fd5b9291505056fea2646970667358221220503316069f215b7f3e5242ac25ad7afd629cfac15a804a9f92d73a27ec2d94fe64736f6c63430008120033","linkReferences":{}},"methodIdentifiers":{"deposit(uint256)":"b6b55f25","getTotalDeposits()":"168a4822","number()":"8381f58a","totalDeposits()":"7d882097"},"id":21}